:020000040800F2
:10000000C850002081020008F53A0008D32F0008EC
:10001000C53A000879080008D54F00080000000024
:10002000000000000000000000000000C101000806
:10003000D50A0008000000001D02000899480008C9
:100040009B0200089B0200089B0200089B0200081C
:100050009B0200089B0200089B0200089B0200080C
:100060009B0200089B0200089B0200089B020008FC
:100070009B0200089B020008810900089B020008FF
:100080009B0200089B0200089B0200089B020008DC
:100090007D0800089B0200089B0200089B020008E4
:1000A0009B020008654900089B0200089B020008AB
:1000B0009B020008714900089B0200089B0200088F
:1000C0009B0200089B0200089B0200089B0200089C
:1000D0009B020008A94F0008BD4F00089B020008C2
:1000E000210B00089B0200089B0200089B020008ED
:1000F0009B0200089B0200089B0200089B0200086C
:100100009B0200089B0200089B0200089B0200085B
:100110009B0200089B0200089B0200089B0200084B
:100120009B0200088D090008990900089B0200083D
:100130009B0200089B0200089B0200089B0200082B
:10014000890800089B0200089B0200089B02000827
:100150009B0200089B0200089B020008C14F000898
:100160009B0200089B0200089B0200089B020008FB
:100170009B0200089B0200089B0200080000000090
:100180009B0200089B020008C14C0008D54C0008E7
:100190009B0200089B0200089B0200089B020008CB
:1001A00000000000000000009B020008DFF80CD0F7
:1001B00000F0D2FA00480047ED510008C850002076
:1001C0002C4B19680868B0E8F04F80F30988BFF33A
:1001D0006F8F4FF0000080F311887047000000001F
:1001E00008480068006880F308884FF0000080F33A
:1001F000148862B661B6BFF34F8FBFF36F8F00DF15
:1002000000BF00BF08ED00E0DFF80C00016841F41A
:1002100070010160704700BF88ED00E0EFF30980D6
:10022000BFF36F8F134B1A681EF0100F08BF20ED3D
:10023000108A20E9F04F106009B44FF0500080F3AD
:100240001188BFF34F8FBFF36F8F05F0BFFC4FF0E6
:10025000000080F3118809BC19680868B0E8F04F05
:100260001EF0100F08BFB0EC108A80F30988BFF3AE
:100270006F8F704738000020EFF305807047000053
:100280000648804706480047FEE7FEE7FEE7FEE730
:10029000FEE7FEE7FEE7FEE7FEE7FEE74949000866
:1002A000AD0100082DE9F05F0546002092469B460F
:1002B00088460646814640241BE02846414647467C
:1002C000224600F092F953465A46C01A914110D383
:1002D00011461846224600F079F92D1A67EB0108FD
:1002E0004F4622460120002100F070F917EB00096B
:1002F0004E41201EA4F10104DFDC484631462A4667
:100300004346BDE8F09F40EA01039B0703D009E0A4
:1003100008C9121F08C0042AFAD203E011F8013BF1
:1003200000F8013B521EF9D27047D2B201E000F84A
:10033000012B491EFBD270470022F6E710B5134689
:100340000A4604461946FFF7F0FF204610BD2DE986
:10035000FE4F804681EA0300C00F0C46009021F05A
:10036000004123F00045B8EB0200A94105D2404608
:10037000214690461C460B46024623F0004010439F
:1003800047D0270DC7F30A00C3F30A510290401A61
:10039000019040286BDAC3F3130040F4801B0098EF
:1003A000924620B10023D2EB030A63EB0B0B0198BA
:1003B0005946C0F14002504600F008F906460D4685
:1003C00050465946019A00F020F910EB08006141AF
:1003D000002487EA115284EAE7731A4340D0009A56
:1003E00062B3019A012A4FEA075215DC001B61EB48
:1003F00002014FF0004202EA0752CDE90042001C20
:1004000041F5801132462B4600F057F903B0BDE8A4
:10041000F08F40462146F9E7001B61EB0201001C0A
:1004200041F5801300185B412018A2F5001747EB37
:10043000030140EAD570B6196D4111E06D084FEA2D
:10044000360645EAC0754FEA0752001B61EB020110
:10045000001C41F5801149084FEA30000019514154
:1004600032462B4603B0BDE8F04F00F017B90098B4
:10047000012240000023D0EB020263EBE0730098FE
:1004800021464FEAE074B8EB000061EB0401E9E7B4
:1004900083F000435BE781F0004158E72DE9F04D20
:1004A00081EA030404F0004B21F0004514464FF0AC
:1004B000000A23F0004150EA050220D054EA01026C
:1004C0001DD0C5F30A570246C5F31303C1F3130049
:1004D000C1F30A5640F4801543F48013A7EB0608D5
:1004E000101BD64608F2FD3873EB050002D308F165
:1004F000010801E092185B41B8F1000F03DA002017
:100500000146BDE8F08D00204FF480110646844678
:100510000EE0171B73EB050705D3121B63EB0503F6
:1005200006434CEA010C49084FEA300092185B413F
:1005300050EA0107EDD152EA030012D082EA04002A
:1005400083EA0501084305D0101BAB4106D2012206
:10055000002306E000224FF0004302E06FF00102AA
:1005600053101AEB06004CEB085110EB0A0041EB5C
:100570000B01BDE8F04D00F091B80EB540F23341EB
:1005800002910021CDE900110A460B4600F095F8D2
:1005900003B000BD01F0004330B421F0004150EA47
:1005A000010206D00A0DA2F56072C1F31301002A00
:1005B00002DC30BC00207047440F44EAC104C10093
:1005C000E01830BC00EBC25000F031B8202A04DB48
:1005D000203A00FA02F1002070479140C2F1200356
:1005E00020FA03F3194390407047202A04DB203A95
:1005F00021FA02F00021704721FA02F3D040C2F143
:1006000020029140084319467047202A06DBCB1789
:10061000203A41FA02F043EAE07306E041FA02F3BD
:10062000D040C2F12002914008431946704700298A
:10063000A8BF7047401C490008BF20F00100704768
:1006400010B4B0FA80FC00FA0CF050EA010404BFC8
:1006500010BC704749B1CCF1200421FA04F411FA1E
:100660000CF118BF012121430843A3EB0C01CB1D62
:100670004FEA00614FEA102042BF002010BC7047D3
:1006800000EBC35010440029A4BF10BC7047401CAD
:10069000490008BF20F0010010BC704710B5141EBF
:1006A00073F1000408DA401C41F1000192185B412B
:1006B0001A4301D120F0010010BD2DE9F04D924602
:1006C0009B4611B1B1FA81F202E0B0FA80F2203219
:1006D0009046FFF77BFF04460F4640EA0A0041EAD6
:1006E0000B0153465A46084313D0114653EA010002
:1006F00019D0C8F140025046FFF777FF05460E4675
:10070000504659464246FFF761FF084305D0012095
:1007100004E020463946BDE8F08D0020054346EA56
:10072000E0762C4337430A986305E40AA0EB0800FF
:100730000022FD0A44EA47540A3002D5002001464F
:10074000E9E7010510196941DDE90845001969412A
:10075000BDE8F04DA2E70000064C074D06E0E0685A
:1007600040F0010394E8070098471034AC42F6D3F8
:10077000FFF720FD346400085464000830B58BB0E6
:1007800000210446012001910291CDE90610039158
:1007900008900E200C4A049100910990944200D1D7
:1007A00005910A498C4200D105906946204600F027
:1007B0005DFB0546204600F0DDFE0221204600F0EC
:1007C000DFFA0BB0284630BD240100204C01002088
:1007D00010B503F063FD02F0BBFC03F069FE04F00A
:1007E000A5FC03F0E7FD04F029FC00F09DF903F0FF
:1007F000AFFA04F019F80448FFF7C0FFBDE8104055
:100800000248FFF7BBBF0000240100204C0100207C
:1008100070B5044690F83900202801D0212829D14C
:1008200021B31AB394F83800012823D0012084F8AA
:100830003800A162A2850025E56394F839002128DB
:1008400016D0222084F8390008461346666B2168CA
:1008500002463046091D01F00DF82068416941F05B
:100860004001416184F83850002070BD012070BD06
:100870002320E7E7022070BDFEE70000014800F0FA
:10088000F0BB000024010020014800F0EABB00009A
:100890004C0100200A8852BA42824A8852BA028029
:1008A0008A8852BA42808A790272C9794172704745
:1008B0002DED028B82B003F007F905F087FA164C94
:1008C0009FED168A164E174F00250190062003F063
:1008D000E3FD00F043FA2060B6F90000F0EE480AAC
:1008E00000EE100A0F48B8EEC00A03F03FFA97ED89
:1008F000170A002384ED010ABDEEC00A1A460095CE
:1009000010EE100A01B2084800F010F8052101A805
:1009100004F0A4FCDAE70000180100200000FA430C
:10092000C0480020B0440020240100207CB5134CB6
:100930000826069D26610026A660E6604FF4007634
:1009400026600C0A8DF800408DF80110110A8DF810
:100950000210190A8DF804108DF80530290A8DF857
:1009600006108DF803208DF8075001236A460349CD
:1009700000F018FA002800D001207CBD7849002042
:10098000014800F03DBE0000B4020020014800F024
:1009900037BE000074030020014800F031BE0000A3
:1009A0001403002001681823CAB2103AB2FBF3F214
:1009B000054B6FF30901032A9B5CC36500D9091D30
:1009C00081650846704700006060000810B5014668
:1009D00000208B698A6A4FF0C07453B1B3F5005F91
:1009E00015D072B1012A0CD0022A0AD0032A09D1EB
:1009F00004E01AB1012A06D0022A03D1C96AC9014A
:100A000000D5012010BDC96AA142FAD010BD002A4C
:100A1000F7D0012AF2D0022AF3D0032AF3D010BD76
:100A200030B50468256825F4802525600468636076
:100A30008368402B036803D099600068C26030BDB2
:100A40009A600068C16030BD38B51D4C20680168EF
:100A5000C9061AD5016840680090606B006801689B
:100A600021F001010160606B0068406812280ED01F
:100A7000242003F05FFC616B242009684860606BF0
:100A80000068016841F001010160002038BD0D4996
:100A900001F1140003F02AFD03F01AFC0B480A4987
:100AA000006804F0F9FF084800680028E3D008490E
:100AB0004FF080500860BFF34F8FBFF36F8FDAE7BE
:100AC000F4010020744B00200C01002004000020E1
:100AD00004ED00E07047000070B5002400F018F944
:100AE0000D4B0E4D03F13C015FF0010003EB84025E
:100AF000D2ED000A70EE600A10EE902AAA420A7B3C
:100B000000FA04F601DD324300E0B243641CE4B2B3
:100B10000A73072CEAD370BD744800200000C84255
:100B20004FF4806000F0FEBE014801F0A9BD000056
:100B300080060020704700002DED048B82B005F088
:100B400045F99FED278A9FED279ADFED278A0090D0
:100B5000B0EE481AF0EE490AB0EE680A234804F0F5
:100B6000FFFD2248B0EE481A1430F0EE490AB0EE0C
:100B7000680A064604F0F4FD1D4D1C4C032003F0EA
:100B80008BFC287A032804D0012804D0022804D042
:100B900006E0184802E0184800E01848E0602062CB
:100BA000B1EE040A114804F0B3FDB1EE040A304678
:100BB00004F0AEFDA06900EE100A6068BCEEC00A49
:100BC00010EE101A00EE100ABCEEC00A10EE100A69
:100BD00003F028FE0521684604F040FBCEE7000044
:100BE0000000C8420000F0420AD7233CA04C00207D
:100BF000744B00200000C8420000FA42000002438B
:100C000010B558B1084C491E0BD310F8013B5340A6
:100C1000DBB234F8133083EA1222F4E74FF6FF70A8
:100C200010BD104610BD00008061000810B5054CD5
:100C300004E000BF10F8013B5340E25C491EF9D2CA
:100C4000104610BD8060000810B5038943810A88F2
:100C500052BA02814C88D31A64BA04808988B3F5E9
:100C6000805F49BA4180016901DD491E03E013F547
:100C7000805F01DA491C016102EB41318289891AE6
:100C8000416110BD10B5038943810A8852BA0281BF
:100C90004C88D31A64BA04808C88B3F5805F64BA38
:100CA000448089798171016901DD491E03E013F5F2
:100CB000805F01DA491C016102EB41318289891AA6
:100CC000416110BD10B5038943810A8852BA02817F
:100CD0004C88D31A64BA04808C88B3F5805F64BAF8
:100CE000848089798171016901DD491E03E013F572
:100CF000805F01DA491C016102EB41318289891A66
:100D0000416110BD098849BA0181818170470000A5
:100D100010B50F4C2DED028B6068FFF72EFC41ECF7
:100D2000180BA0680068406AFFF727FC9FED091BBD
:100D300053EC112BFFF7B2FB53EC182BFFF707FB1B
:100D4000FFF728FCBDEC028B00EE100A10BD00007E
:100D5000B048002000000000000059400148006831
:100D6000406A70478006002008B505F02FF8009013
:100D7000052003F091FB0521684604F06FFAF7E7C0
:100D800090F82020012A07D0022A05D0416A41F4B8
:100D90008021416201207047006842690A43426134
:100DA00000207047F0B590F820500468A468012D29
:100DB00005D0022D03D0416A41F4802153E014F0A4
:100DC000406F01D1E5004BD5C4F30164022C03D977
:100DD000416A41F4000146E00125A5401D608D688F
:100DE0004FF4C0739DB1CE6835434E6845EAC605E1
:100DF000066803EB0417F5514FF4C275076805EB5D
:100E000004150E697E51097D012905D009E00E887F
:100E1000CD6845EA4655EBE701684E5946F48076C1
:100E20004E511179D2F805504FF4C67641EA0525A6
:100E3000016806EB04168D511178D2F801204FF4A9
:100E4000C47541EA0221026805EB0415515100689E
:100E500003EB0411425842F0010242500020F0BD61
:100E6000416A41F4001141620120F0BD10B590F8D3
:100E70002020012A07D0022A05D0416A41F48021AE
:100E80004162012010BD3B48D0F8002242F001022F
:100E9000C0F80022D0F8002222F47C52C0F80022D0
:100EA000D0F800224B6A42EA0322C0F800220A7DF1
:100EB00002F01F0301229A40D0F81C329343C0F87D
:100EC0001C32CB69B3B9D0F80C329343C0F80C3262
:100ED0008C894B6864F31F434C6900EBC404C4F86D
:100EE00040320C890B6864F31F434C6900EBC40467
:100EF000C4F84432CB69012B16D1D0F80C3213431D
:100F0000C0F80C320C884B6864F31F434C6900EB4B
:100F1000C404C4F840320C89CB6864F31F434C69A5
:100F200000EBC404C4F844328B69002BD0F80432BF
:100F30000ED01343C0F804320B69002BD0F81432E2
:100F400008D01343C0F81432096A012904D008E01C
:100F50009343EFE79343F5E7D0F81C121143C0F831
:100F60001C12D0F8001221F00101C0F8001200207C
:100F700010BD000000640040704730B590F820407C
:100F8000012C05D0022C03D0416A41F480215DE0A0
:100F90000468002955D02469A40754D04FF4D874AC
:100FA000056804EB01142D5915F0040595600568DA
:100FB0002D594ED0ED08556005682C5904F00204F7
:100FC000D4604FF4DA74056804EB01142D5905F070
:100FD0000F05156105682D59C5F30725956105684D
:100FE0002C59240C54614FF4DC72046802EB01129A
:100FF000A4581C700468A458240A5C700468A4589F
:10100000240C9C700468A258120EDA704FF4DE7241
:10101000046802EB0112A4581C710468A458240A45
:101020005C710468A458240C9C710468A258120EC8
:10103000DA71006881B1016941F02001016100208D
:1010400030BDE468A8E7416A41F400114162012023
:1010500030BD6D0D1560AFE7C16841F02001C16082
:10106000EDE72DE9F05F0546006800244669D0F8F9
:1010700004908768D0F80CB0D0F810A0D0F8188091
:10108000F10748D0F90714D001218160B80703D5D2
:10109000284600F09CFA0CE0780702D54FF4006473
:1010A00007E0380702D54FF4805402E0284600F0EC
:1010B0008DFAF80516D529684FF480708860B80558
:1010C00003D5284600F085FA0CE0780502D544F4F3
:1010D000005407E0380502D544F4804402E0284675
:1010E00000F076FAF80316D529684FF4803088604E
:1010F000B80303D5284600F06EFA0CE0780302D559
:1011000044F4004407E0380302D544F4803402E09C
:10111000284600F05FFA300707D55FEACB6004D5B8
:101120002968102044F40074C86070074FF0080765
:1011300007D55FEA0B7004D52868C760284600F021
:1011400099F9B00706D52868C068800702D02846FC
:1011500000F092F9700607D55FEACA6004D52968E5
:10116000102044F480640861B00607D55FEA0A7075
:1011700004D528680761284600F0F8F9F00606D57E
:1011800028680069800702D0284600F0F0F9B00313
:1011900008D55FEAC96005D529681020486028464F
:1011A00000F0E6F9F00307D55FEA097004D5286876
:1011B0004760284600F010FA300446D55FEA4970CF
:1011C00040D5F00504D55FEAC87001D044F00104B1
:1011D000B00504D55FEA887001D544F002047005BB
:1011E00004D55FEA487001D544F00404300529D5E0
:1011F00018F0700F26D008F07000402815D006DCDB
:10120000102809D020280AD0302816D10AE050280A
:101210000ED0602811D10EE044F008040DE044F037
:1012200010040AE044F0200407E044F0400404E025
:1012300044F0800401E044F480742868816921F05E
:1012400070018161296804204860002C05D0686A1B
:10125000204368622846FFF78FFEBDE8F09F70B517
:10126000040003D094F8200010B104E0012070BD08
:10127000204600F081F82068016821F00201016039
:1012800000F058FC0546052604E000F053FC401B26
:101290000A2811D8206840688007F6D420680168C1
:1012A00041F00101016000F045FC05460BE000F053
:1012B00041FC401B0A2806D9606A40F40030606295
:1012C00084F82060D2E720684068C007EFD0207E15
:1012D0000128206801683DD021F080010160607E16
:1012E00001282068016838D021F040010160A07E0B
:1012F00001282068016833D021F020010160E07EE0
:101300000128206801682ED041F010010160207F83
:1013100001282068016829D021F008010160607F60
:1013200001282068016824D021F004010160D4E97B
:1013300002010843D4E90412114308436168491EBD
:1013400008432168C86100206062012084F8200001
:10135000002070BD41F08001C0E741F04001C5E7C9
:1013600041F02001CAE721F01001CFE741F0080168
:10137000D4E741F00401D9E7F0B587B00446142161
:101380006846FEF7D9FF364B3648DFF8D0E01968DB
:10139000D4F800C0334A0325022609271030002460
:1013A000491CF44522D11960012907D1016841F097
:1013B00000710160006800F000700590106840F056
:1013C000080010601068CDE9005600F00800CDE973
:1013D000047069462448CDE9024500F0AFFA0022C6
:1013E0000521142000F032FC142033E0DFF87CE00B
:1013F000F44531D1D0F800C04CF0806CC0F800C08A
:10140000D0F800C001290CF0806CCDF814C0196030
:1014100007D1016841F000710160006800F00070C0
:101420000590106840F002001060106802AB00F0F8
:10143000020005904FF44050CDE9000683E8B0006B
:1014400069460B4800F07AFA00220521402000F09E
:10145000FDFB402000F0ECFB07B0F0BD0064004055
:101460000000002030380240000C024000680040BC
:10147000000402407047000030B5384993B08842FC
:101480005BD16B4602AA0021FFF777FD0298332556
:10149000334CA0F50070013816D0022823D0042860
:1014A00033D005280ED1012002F0E2FF94F86C1031
:1014B000481C84F86C0004F15400322937D869467E
:1014C000FFF720FC13B030BD032002F0D1FF207ED7
:1014D000411C2176322802D869462148F0E725765A
:1014E00069461F4820E0022002F0C2FF94F8341041
:1014F000481C84F834001A481C303229DFD984F89B
:1015000034506946FFF7A0FBDCE7002002F0B0FF93
:1015100094F85010481C84F8500011483830322993
:10152000CDD984F850506946FFF7ACFBCAE784F880
:101530006C506946FFF7C6FBC4E70A498842C1D12F
:1015400010AB09AA0021FFF718FD0998B0F5887FB4
:10155000B8D110A90448FFF79DF9B3E72401002092
:10156000C04800204C010020744B00207047704799
:101570007047000070B5044690F82000012804D0A0
:10158000606A40F40020606218E0022084F82000C5
:101590002068016821F00101016000F0CBFA0546E6
:1015A0000EE000BF00F0C6FA401B0A2808D9606AA6
:1015B00040F400306062052084F82000012070BDF6
:1015C00020684068C007EDD1606270BD7047704709
:1015D0007047704770477047704790F83510022980
:1015E00003D08021416501207047052180F8351026
:1015F0000068016821F001010160002070470000CF
:101600002DE9F84304464FF00009CDF800906348F7
:101610004FF41651A56D0068B0FBF1F72E6894F8F1
:101620005C10082000FA01F131420FD021680A68ED
:1016300052070BD50A6822F004020A6094F85C1085
:101640008840A860606D40F00100606594F85C100F
:101650004FF0010808FA01F0304208D021684969CA
:10166000090604D5A860606D40F00200606594F83A
:101670005C1004208840304208D02168096889073E
:1016800004D5A860606D40F00400606594F85C10BB
:1016900010208840304218D021680968090714D505
:1016A000A86020680168490304D50068000308D5D4
:1016B000A16C07E00168C90503D4016821F00801A5
:1016C0000160216C09B12046884794F85C10202005
:1016D0008840304231D021680968C9062DD5A860FC
:1016E00094F8350005282068016806D0490347D5DD
:1016F000006800031DD4616C1CE021F0160101603C
:101700002068416921F080014161206C08B9A06C1A
:1017100020B12068016821F00801016094F85C1094
:101720003F208840A86084F8349084F83580216D8B
:101730001FE0E16B09B120468847606D00282BD07F
:10174000606DC00714D0052084F83500206801685A
:1017500021F0010101600098401C0090B84203D8BC
:1017600020680068C007F6D184F8349084F835808A
:10177000E16C002910D001B02046BDE8F0430847D5
:101780000168C905D5D4016821F01001016084F811
:10179000349084F83580CCE7BDE8F883340000202D
:1017A0002DE9F041044600F0C5F906465CB100257C
:1017B00084F83450022084F835002068016821F054
:1017C000010101600DE00120BDE8F08100F0B2F9F7
:1017D000801B052805D920206065032084F835008A
:1017E000F2E720680068C007F0D12268116820483D
:1017F0000140D4E901031843D4E9033633431843C5
:1018000063691843A3691843E3691843236A1843BB
:101810000843616A042903D1D4E90B13194308432F
:10182000106020684069666A20F0070130460E4368
:10183000012704280CD1A06A0643E06A40B1204683
:10184000FFF7C4F820B14020606584F83570BAE72E
:10185000206846612046FFF7A5F894F85C203F21F8
:1018600091408160656584F835700020ACE7000028
:101870003F8010F070B5044690F834000025012830
:101880000CD0012084F8340094F835600020012E3B
:1018900006D084F834000225284670BD022070BDB1
:1018A000022684F8356060652046FFF7B9F82068A5
:1018B000016841F001010160EEE7000070B50446E7
:1018C00000F038F90546601C02D004480078044452
:1018D00000F030F9401BA042FAD370BD2800002070
:1018E00070B54FF48065A84212D10C4E294630469F
:1018F00000F00EF90A4C01280BD02946304600F0C2
:1019000007F9002804D12068016841F01001016046
:1019100070BD2068016821F01001F8E70014024052
:1019200080060020044910B50A68024202D008600F
:10193000FFF7D6FF10BD0000143C01402DE9F84F21
:1019400000224FF0010803254FF00F0E0B6808FA34
:1019500002F42340A3426ED14E68012E05D0022E20
:1019600003D0112E01D0122E12D186684FEA420CFC
:1019700005FA0CF7BE43CF6807FA0CF737438760C8
:101980004668A6430C79C4F3001494403443446081
:10199000C668570005FA07FC8C6826EA0C06BC40AE
:1019A0003443C4604C68022C01D0122C13D1D408EB
:1019B00000EB8404A346D4F8209054074FEAD46A7D
:1019C0000EFA0AF629EA06090E6906FA0AF646EA46
:1019D0000906CBF8206004680E7924EA0C0406F0AE
:1019E0000306BE40264306604C68E4006FD53B4CBE
:1019F000266846F480462660246822F0030604F434
:101A000080440094364C3444A446D4F808489607E1
:101A1000360F0EFA06F7BC43324FB84201D1002709
:101A20002EE0314FB84201D1012729E02F4FB842B3
:101A300002D1022724E04AE02D4FB84201D103270A
:101A40001EE02C4FB84201D1042719E02A4FB842BA
:101A500001D1052714E0294FB84201D106270FE034
:101A6000274FB84201D107270AE0264FB84201D1DB
:101A7000082705E0244FB84201D1092700E00A27D2
:101A8000B7402743CCF80878204E34684F689C4311
:101A9000FF0300D51C4334601C4E361D34684F686C
:101AA0009C43BF0300D51C433460184E083634688D
:101AB0004F689C43FF0200D51C433460134E0C3624
:101AC00034684F689C43BF0200D51C433460521CED
:101AD000102AFFF43BAFBDE8F88F00004438024005
:101AE00000300140000002400004024000080240B3
:101AF000000C024000100240001402400018024096
:101B0000001C02400020024000240240003C014032
:101B10000069084000D001207047426931EA0202A2
:101B200000D10904816170470AB1816170470904DD
:101B3000FBE7000001488068704700002800002093
:101B400002488168027811448160704728000020B3
:101B50000B4810B5016841F400710160016841F45F
:101B600080610160016841F480710160032000F030
:101B70008DF8002000F006F800F03EF8002010BDBF
:101B8000003C024010B5014688B00022192000F048
:101B90005DF8192000F04CF813480024016841F06A
:101BA00001010160006805A900F001000690684687
:101BB00000F018F900F046F90C494000B0FBF1F1D3
:101BC0000C480B4A491E026040F2E732C0E9032488
:101BD000C0E9011400F0D8FC10B1012008B010BD1C
:101BE000044800F05FFDF9E74438024040420F002E
:101BF00000000140800700200C4882B0016841F4D9
:101C000080410160006800F4804000900748001F98
:101C1000016841F0805101600068002200F08050AE
:101C200000900F21901E02B000F010B8443802401E
:101C3000002809DB00F01F020121914040098000CB
:101C400000F1E020C0F8001170470000F0B40E4B26
:101C50001B680C46C3F30223C3F10705042D00D90A
:101C60000425191D072901D2002300E0DB1E0126EF
:101C700006FA05F1491E214099409E40761E164005
:101C80003143F0BC03F064BA0CED00E0064900F00B
:101C9000070208684FF6FF03184040EA0220034A93
:101CA00010430860704700000CED00E00000FA05EA
:101CB0002DE9F0470E46050065D0DFF81481D8F80D
:101CC0000000F7B200F00F00B04207D288F80070B1
:101CD000D8F8000000F00F00B04254D128683D4C05
:101CE000810712D5400703D5206840F4E0502060FA
:101CF0002878000703D5206840F460402060206801
:101D0000A96820F0F000084320602878C0072DD093
:101D1000304968680839012812D0022813D00328F6
:101D200011D00968890700292DDA216821F0030103
:101D300001432160FFF7FEFE814641F2883A0EE042
:101D400009688903EFE709688901ECE7FFF7F2FE0C
:101D5000A0EB0901514502D90320BDE8F0872068B6
:101D6000696800F00C00B0EB810FEFD1D8F80010DB
:101D7000404601F00F01B14207D90770006800F03A
:101D80000F00B04201D00120E7E72878400705D5D1
:101D90002068E96820F4E0500843206028780007B4
:101DA00006D52068296920F4604040EAC10020601F
:101DB00000F058F82168084AC1F30311515CC8408B
:101DC0000649086006480068FFF7DCFE0020C4E70B
:101DD000003C0240083802406860000834000020DF
:101DE0002C0000200F2202600C4A136803F003034A
:101DF0004360136803F0F0038360136803F4E05357
:101E0000C36012684FF4E05303EAD202026104484F
:101E1000006800F00F0008607047000008380240BA
:101E2000003C02400448054900680968044AC1F3BF
:101E30008221515CC84070473400002008380240BD
:101E4000786000080448054900680968044AC1F33D
:101E50004231515CC84070473400002008380240CD
:101E600078600008154810B5006810F00C0214489E
:101E700013D01449042A0FD0082A0ED10F4C241F66
:101E80002268236802F03F025B0207D52068C0F396
:101E90008810A0FB010106E0084610BD2168C1F3CF
:101EA0008811A1FB00010023FEF7FCF92168C1F3B2
:101EB0000141491C4900B0FBF1F010BD0838024057
:101EC0000024F400001BB7002DE9F84F040076D081
:101ED0002078DFF838A3CE4DC00749D0DAF80010DB
:101EE0005046C1F38101012908D00068C0F3810088
:101EF00002280AD1281D0068400206D52868800300
:101F000036D560680028E2D032E06068B0F5803FE6
:101F100010D0B0F5A02F286810D020F480302860B1
:101F2000286820F4802028606068A0B1FFF702FED6
:101F300006460CE0286840F48030F4E740F4802046
:101F40002860F7E7FFF7F6FD801B642873D8286840
:101F50008003F7D50CE0FFF7EDFD064605E000BF76
:101F6000FFF7E8FD801B6428F0D828688003F7D4C9
:101F70002078DFF8A08280074FF000093ED5DAF81C
:101F80000010504611F00C0F09D00068C0F381001A
:101F900002280BD19D48001F0068400206D4286823
:101FA000800715D5E068012809D111E0E068B8B1D3
:101FB0000120C8F80000FFF7BDFD064605E020E15E
:101FC000FFF7B8FD801B0228C0D828688007F7D526
:101FD0002868216920F0F80040EAC10028600DE07F
:101FE000C8F80090FFF7A6FD064604E0FFF7A2FD43
:101FF000801B02281FD828688007F7D420780007A4
:1020000022D5824E844861696C3671B1012101602C
:10201000FFF790FD074604E0FFF78CFDC01B022888
:1020200009D830688007F7D50EE0C0F80090FFF7B8
:1020300081FD074605E082E0FFF77CFDC01B02281A
:102040007DD830688007F7D42078400768D5DFF85E
:10205000BCB100270BF1380BDBF80000C0000BD43B
:10206000DBF8001041F08051CBF80010DBF80000E5
:10207000012700F080500090684E3068C00510D4F1
:10208000306840F480703060FFF754FD009005E048
:10209000FFF750FD0099401A022850D83068C0055B
:1020A000F6D55A4EA068683601280FD0052830684A
:1020B00010D020F001003060306820F00400306063
:1020C000A068B8B1FFF736FD00900FE0306840F02F
:1020D0000100F4E740F004003060F7E7FFF72AFD65
:1020E0000099411A41F28830814266D830688007F1
:1020F000F4D50EE0FFF71EFD009007E0FFF71AFD94
:102100000099411A41F28830814256D830688007E0
:10211000F4D42FB1DBF8001021F08051CBF800107F
:10212000A069D0B3DAF800205146C2F38102022A36
:102130004AD00228484607D0C8F8600000E03CE0DA
:10214000FFF7F8FC04463BE04746C8F86000FFF79D
:10215000F1FC064605E000BFFFF7ECFC801B0228FF
:102160002BD828688001F7D4D4E907010843A16A75
:102170002B4A490802EB0141626A41EA8211084395
:1021800094F82C1040EA01612048001F01600120F2
:102190003866FFF7CFFC044605E034E0FFF7CAFCE1
:1021A000001B022809D828688001F7D52BE000BF62
:1021B000FFF7C0FC001B022802D90320BDE8F88FFE
:1021C00028688001F4D41EE00128F7D00868E2698D
:1021D00000F48001914214D1226A00F03F01914243
:1021E0000FD147F6C071626A0140914209D1A26ADB
:1021F00000F44031914204D1E16A00F070608842FD
:1022000001D00120DAE70020D8E7000008380240BA
:102210000038024000004742800E474200700040F4
:102220000000FFFF70B5040005D00025A56294F8FA
:10223000510010B106E0012070BD84F850502046D6
:1022400000F030F8022084F851002068016821F085
:1022500040010160D4E901010843D4E903121143AC
:10226000084361690843218B01F400710843E16967
:102270000843216A0843A16A084321680860A069ED
:10228000042101EA1040616A08432168486020681F
:10229000C16921F40061C1616565012084F85100C4
:1022A000002070BD10B586B0044614216846FEF7C4
:1022B00043F814492068884221D11348002102685C
:1022C00042F480120260006800F4801005900E480D
:1022D0001438026842F020020260006800F020001A
:1022E00005904FF4607000900220CDE901010320B9
:1022F00003900520049069460448FFF71FFB06B0D1
:1023000010BD00000050014044380240001402405B
:102310002DE9F84F044690F8500000270A9E1D460C
:1023200092468B464FF0010901280ED0012084F817
:102330005000FFF7FFFB804694F8510061680128C8
:102340000CD0B1F5827F07D102E00220BDE8F88F02
:10235000A16809B9042801D00227C2E0BBF1000F2F
:1023600027D0BAF1000F24D01DB394F851000428EF
:1023700002D0052084F8510000206065C4F838A020
:10238000E587A587C4F830B0E586A586206460643B
:1023900020680168490603D4016841F040010160EA
:1023A000E068B0F5006F606805D0E8B3012D46D055
:1023B0007FE0012795E008B1012D39D1206B21681C
:1023C0000088C860206B801C2063E08E401EE08681
:1023D0002EE02068816889070FD5E18E69B1B9F1D7
:1023E000010F0AD1216B0988C160206B801C20631A
:1023F000E08E401EE0864FF0000920688168C90722
:102400000CD0E18F51B1C068A16B0880A06B801C1B
:10241000A063E08F401EE0874FF00109FFF78AFBC1
:10242000A0EB0800B04200E009E001D3701C50D1DD
:10243000E08E0028CDD1E08F0028CAD13FE0206B8C
:10244000216800780873206B401C2063E08E401EDA
:10245000E0862EE02068816889070FD5E18E69B19A
:10246000B9F1010F0AD1216B09780173206B401C6F
:102470002063E08E401EE0864FF0000920688168EE
:10248000C9070CD0E18F51B1C068A16B0870A06B77
:10249000401CA063E08F401EE0874FF00109FFF76A
:1024A00049FBA0EB0800B04202D3701C01D010E041
:1024B0007EB1E08E0028CDD1E08F0028CAD14246FF
:1024C0003146204602F038F928B101272020606506
:1024D00007E0032705E0A06818B92068C168806894
:1024E0000090012084F85100002084F85000384604
:1024F0002CE770477047000070B590F83C20012A27
:1025000032D0012480F83C40022280F83D2003684C
:102510005A689D6822F070060A6832435A60134B6D
:1025200002689A4214D0B2F1804F11D0104B9A42F7
:102530000ED0104B9A420BD00F4B9A4208D00F4B43
:102540009A4205D00E4B9A4202D00E4B9A4204D1C9
:10255000496825F080031943916080F83D400021CF
:1025600080F83C10084670BD022070BD000001409C
:102570000004004000080040000C0040000401403E
:10258000004001400018004010B5040003D094F84A
:102590003D0010B107E0012010BD002084F83C0090
:1025A000204600F00DF8022084F83D00211D20682F
:1025B00002F0E4F9012084F83D00002010BD000085
:1025C00010B586B0044614216846FDF7B5FE2168B3
:1025D00000222648B1F1804F14D0254A91422ED1D5
:1025E000016841F0020101600068002200F0020071
:1025F000059005211D20FFF729FB1D20FFF718FB83
:1026000006B010BD016841F001010160006800F0F2
:102610000100059015481038016841F00101016082
:102620000068022100F00100059001208DE80700FC
:10263000CDE9032069460F48FFF780F9E0E70E4A2D
:10264000914207D1016841F004010160006800F087
:10265000040009E0094A9142D2D1016841F0080121
:102660000160006800F008000590C9E740380240AA
:10267000000400400000024000080040000C004040
:10268000022180F83D1001688A6802F00702062ADC
:1026900003D00A6842F001020A60012180F83D106F
:1026A000002070470168CA6842F00102CA600068F1
:1026B000816801F00701062903D0016841F001019A
:1026C00001600020704770B5044690F83C00012876
:1026D00017D0012584F83C50022084F83D00206882
:1026E000826822F0770222F47F42826008685028D4
:1026F00030D00DDC20284DD005DC98B310283BD11C
:1027000048E0022070BD302844D0402834D139E060
:10271000602828D0702806D0B0F5805F2CD0B0F5A6
:10272000005F29D10AE0CB68D1E90121206802F0DD
:102730009FF92068816841F0770109E0CB68D1E911
:102740000121206802F094F92068816841F48041F9
:10275000816011E0CA684968206802F05DFA502182
:10276000206807E016E0CA684968206802F065FA48
:102770006021206802F086F984F83D50002084F83A
:102780003C0070BDCA684968206802F045FA4021E3
:102790002068EFE7226801461046EBE7704770B506
:1027A0000446006801694FF00005C943890715D444
:1027B000C168C943890711D4E91E0161012020774E
:1027C000206880698007204602D0FFF7E7FF04E019
:1027D00000F0ECF8204600F06EF9257720680169DA
:1027E000C943490717D4C168C943490713D46FF0D7
:1027F00004010161022020772068806910F4407F85
:10280000204602D0FFF7CAFF04E000F0CFF82046D0
:1028100000F051F9257720680169C943090716D4EA
:10282000C168C943090712D46FF00801016104208F
:1028300020772068C0698007204602D0FFF7AEFFEE
:1028400004E000F0B3F8204600F035F92577206861
:102850000169C943C90617D4C168C943C90613D45D
:102860006FF010010161082020772068C06910F422
:10287000407F204602D0FFF791FF04E000F096F879
:10288000204600F018F9257720680169C943C90777
:1028900008D1C168C943C90704D1891E0161204616
:1028A00000F02CF920680169C943090609D4C16800
:1028B000C943090605D46FF0800101612046FFF786
:1028C00018FE20680169C943490609D4C168C94393
:1028D000490605D46FF040010161204600F01EF961
:1028E00020680169C94389060BD4C168C9438906B8
:1028F00007D46FF0200101612046BDE87040FFF76A
:10290000F9BD70BD30B587B0044614216846FDF7A7
:1029100013FD204A216800241F48022591420FD14F
:10292000016841F0080101600068694600F0080094
:1029300005904FF470400090CDE90154174823E012
:10294000174A914224D1016841F480710160016805
:1029500001F480710591016841F080010160006817
:10296000694600F08000059001200090CDE90154F7
:102970000C48CDE90345FEF7E1FF4FF4E05000902D
:10298000CDE9015408486946CDE90345FEF7D6FF75
:1029900007B030BD0008004030380240000C024053
:1029A000000C004000200240001C0240704770B53F
:1029B000044690F83C000D4601280DD0012684F80D
:1029C0003C60022084F83D0042B1042A18D0082A55
:1029D0002AD00C2A4DD139E0022070BD206802F0C7
:1029E00059F82068816941F0080181612068816996
:1029F00021F004018161206881692A69114311E095
:102A0000206802F077F82068816941F400618161F3
:102A10002068816921F480618161206881692A6967
:102A200041EA0221816124E0206802F099F82068DF
:102A3000C16941F00801C1612068C16921F0040148
:102A4000C1612068C1692A69114311E0206802F060
:102A5000BBF82068C16941F40061C1612068C169A7
:102A600021F48061C1612068C1692A6941EA0221BB
:102A7000C16184F83D60002084F83C0070BD10B551
:102A8000040003D094F83D0010B107E0012010BD10
:102A9000002084F83C00204600F00CF8022084F866
:102AA0003D00211D206801F069FF012084F83D00F0
:102AB000002010BD7047704710B504460068012221
:102AC00001F0C0FF0B492068884202D00A498842C1
:102AD00003D1416C41F4004141642068816801F0F8
:102AE0000701062903D0016841F0010101600020BF
:102AF00010BD00000000014000040140054A0168CB
:102B0000914201D1FFF71CB80349884201D101F07D
:102B1000BBBC704700000140C006002070477047F2
:102B200070B5026804461068D168536910F00F0F41
:102B300052D003F0010501F490762E435FD0C20716
:102B400005D0CA0503D5E26B42F00102E2634207F9
:102B500005D5DA0703D0E26B42F00202E263820796
:102B600005D5DA0703D0E26B42F00402E263020704
:102B700007D501F020022A4303D0E26B42F008029D
:102B8000E263E26B002A33D0800604D5880602D5C2
:102B9000204602F0C6F820684069E16BC0F380105F
:102BA000090700D428B3204602F0A2F82068416942
:102BB00049061AD5416921F040014161606BA0B11D
:102BC0001B490165606BFEF708FD002810D0606BA3
:102BD000016DBDE870400847830610D58B060ED501
:102BE0002046BDE8704002F09CB82046FFF797FFF2
:102BF00070BD2046FFF793FF0020E06370BD030621
:102C000006D50B0604D52046BDE8704002F068B931
:102C10004006F3D54806F1D5D168204621F04001A1
:102C2000D160202184F8391000F0D2F970BD000085
:102C3000E14C000870B5040004D094F83900002578
:102C400010B106E0012070BD84F83850204600F035
:102C500023F8242084F839002068C16821F4005149
:102C6000C160204602F0A8F82068016921F4904173
:102C700001612068416921F02A0141612068C16831
:102C800041F40051C160E563202084F8390084F8E4
:102C90003A00002070BD00002DE9F04F87B00546D6
:102CA00014216846FDF748FB8E488E49DFF83082D4
:102CB0002F680024103902230322DFF82CE20615C6
:102CC0004FF0010B4FF0080C4FF480794FF4403A6D
:102CD000474536D1076847F080470760006800F035
:102CE00080400590086840F0100008600868694658
:102CF00000F010000590D0018DE80908CDE9032C03
:102D00007046FEF71BFE7A4F784807F118083860C6
:102D10004FF02060C7E90104C7E903467C6188E8F9
:102D2000100638467C62FEF73BFD08B1FDF702FF56
:102D30006F63002205215220BD63FEF787FF5220FA
:102D400021E0DFF8B081474522D1046844F0004417
:102D50000460006800F000400590086840F0100032
:102D6000086008688DE80C0800F01000CDE904C088
:102D7000694603927046FEF7E1FD002205215320CB
:102D8000FEF764FF5320FEF753FF07B0BDE8F08F56
:102D9000DFF86481DFF84CB14FF0070E0BF1040B44
:102DA00047453AD1DBF8007047F01007CBF80070C8
:102DB000DBF8000000F010000590086840F0020009
:102DC00008600868694600F002000590C0208DE8A0
:102DD0001900CDE9032E4948FEF7B0FD444F48489D
:102DE000603738604FF00060C7E90104C7E9034667
:102DF00007F118007C6180E8100638467C62FEF717
:102E0000CFFC08B1FDF796FE6F6300220521252057
:102E1000BD63FEF71BFF2520B5E7DFF8E8804745D7
:102E20001FD1056845F400350560006800F40030E6
:102E30000590086840F0080008600868694600F0DE
:102E40000800059060208DE81900CDE9032E2E487A
:102E5000FEF774FD002205212620FEF7F7FE26204E
:102E600091E72A48874290D1DBF8007047F02007AD
:102E7000CBF80070DBF8000000F020000590086837
:102E800040F0400008600868694600F04000059086
:102E90004FF484408DE81900CDE9032C1C48FEF75F
:102EA0004DFD134F1648C037183838608005C7E904
:102EB0000104C7E9034607F118007C6180E81006A9
:102EC00038467C62FEF76CFC08B1FDF733FE6F6399
:102ED000002205214720BD63FEF7B8FE472052E7D8
:102EE0000078004040380240001002405860024024
:102EF000B4020020007C00400010014000040240A9
:102F00004064024000440040000C024000140140B4
:102F10000018024070472DE9F843044690F8390044
:102F20001F4616460D46202850D1B5B1AEB194F8D3
:102F3000380001284AD0012084F838004FF00008FA
:102F4000C4F83C80212084F83900FEF7F3FDA68404
:102F50008146E68484F8388026E00120BDE8F883C5
:102F6000E08C401EE084A0684B46B0F5805F4FF0D7
:102F700000024FF080012046009703D001F0E1FFEE
:102F8000E8B90DE001F0DDFFC8B928882168C0F379
:102F900008004860206908B16D1C05E0AD1C03E025
:102FA000216815F8010B4860E08C0028D8D14B4609
:102FB000002240212046009701F0C3FF08B1032002
:102FC000CCE7202084F839000020C7E70220C5E7BD
:102FD0007047FEE710B530216A2000F0E5F90A20BD
:102FE000FEF76CFC0D21242000F0DEF90A20FEF72C
:102FF00065FC0E21282000F0D7F90A20FEF75EFCC0
:103000008E21312000F0D0F90A20FEF757FC012173
:103010000B2000F07BF80A20FEF750FC002000F0A7
:1030200059F8102801D0012010BD01210B2000F01B
:103030006DF80A20FEF742FC00210A2000F066F835
:103040000A2000F047F808B1022010BD0A20FEF760
:1030500035FC00210B2000F059F80B2000F03AF865
:1030600008B1032010BD0A20FEF728FC24214120CE
:1030700000F04CF8412000F02DF8242801D0042065
:1030800010BD0A20FEF71AFCC021422000F03EF8D5
:10309000422000F01FF8C02801D0052010BD0A20F2
:1030A000FEF70CFC00212A2000F07EF90A20FEF732
:1030B00005FC0021342000F077F90A20FEF7FEFB22
:1030C000062203210E2000F075F86420FEF7F6FBBF
:1030D000002010BD10B50146322000F065F90A202D
:1030E000FEF7ECFB8021342000F05EF90A20FEF7A9
:1030F000E5FB352000F0F8F804460021342000F00C
:1031000053F90A20FEF7DAFB204610BD70B50D46D4
:10311000044600212A2000F047F90220FEF7CEFBEA
:103120002146292000F040F90220FEF7C7FB29467E
:10313000642000F039F90220FEF7C0FB81212A202B
:1031400000F032F9BDE870400A20FEF7B7BB00007E
:1031500030B585B06420FEF7B1FB752000F0C4F8EF
:10316000124900241422887011496846FDF7CBF8F3
:103170004FEA0D0505EB4400417815F8140000F006
:1031800013F90120FEF79AFB641CE4B20A2CF1D378
:10319000032000F004F9022000F0FCF8FFF71AFF0A
:1031A00000F050F805B0002030BD00009C00002069
:1031B0008063000870B50E46044601461546282077
:1031C00000F0F2F80220FEF779FB0A21292000F036
:1031D000EBF80220FEF772FB0121642000F0E4F816
:1031E0000220FEF76BFB44F08001252000F0DCF8A4
:1031F0000220FEF763FB3146262000F0D5F80220BE
:10320000FEF75CFB0321342000F0CEF80220FEF72D
:1032100055FB0321672000F0C7F80220FEF74EFBA4
:1032200081212A2000F0C0F80620FEF747FB45F078
:103230008001272000F0B8F8BDE870400220FEF7BA
:103240003DBB00002DE9F041264E002706F10E049B
:103250004FF496750E2223493B2000F06DF831881B
:10326000A08A49BA0844A0827188E08A49BA084411
:10327000E082B188208B49BA084420833189608B71
:1032800049BA084460837189A08B49BA0844A08375
:10329000B189E08B49BA0844E0830520FEF70EFBB4
:1032A0007F1CAF42D6DBB4F9140090FBF5F0A0828E
:1032B000B4F9160090FBF5F0E082B4F9180090FB29
:1032C000F5F02083B4F91A0090FBF5F000B26083AA
:1032D00090FBF5F0A083B4F91E0090FBF5F0E083BD
:1032E000BDE8F08144480020F8B5104E04460022A5
:1032F00040213046FEF718FC44F080000C4C372586
:10330000621C20700123511E0A480095FFF700F847
:10331000621C0123511E07480095FEF7F9FF0122A8
:1033200040213046FEF700FC6078F8BD00140240F2
:103330009C00002028060020F8B5134F15460E46C5
:103340000446002240213846FEF7EEFB0F4944F0C8
:103350008000372408705231A1F151020870012316
:1033600052390B480094FEF7D3FF08492B463246EA
:10337000523107480094FEF7CBFF01224021384626
:10338000FEF7D2FB0020F8BD001402409C00002094
:1033900028060020C006010E1C2000F005B8C0065B
:1033A000010E1B20AFF30080F8B5114F0E46044606
:1033B000002240213846FEF7B7FB04F07F000D4C99
:1033C0003725621C20700123511E0B480095FEF723
:1033D0009FFF2670621C0123511E07480095FEF7CF
:1033E00097FF012240213846FEF79EFB0020F8BDE2
:1033F000001402409C000020280600200F4810B551
:103400000D4901600621416000214FF48032816046
:10341000C0E903124FF44012426101764176817691
:10342000C17601774177FDF71AFF002803D0BDE888
:103430001040FDF77FBB10BD006400402401002058
:103440000F4810B50D4901600621416000214FF47D
:1034500080328160C0E903124FF44012426101766C
:1034600041768176C17601774177FDF7F8FE002835
:1034700003D0BDE81040FDF75DBB10BD0068004003
:103480004C010020154808B5016841F400110160A5
:10349000016801F400110091016841F480010160AC
:1034A0000068002200F48000009005210E20FEF745
:1034B000CDFB0E20FEF7BCFB002205213920FEF7D4
:1034C000C5FB3920FEF7B4FB002205213A20FEF7A8
:1034D000BDFBBDE808403A20FEF7AABB30380240E9
:1034E00010B5C0B01C2232496846FCF70CFF002121
:1034F000684601F0BFFE2F4C2D491C2220621C3172
:1035000007A8FCF700FF002107A801F0B3FE284937
:1035100020601C2238310EA8FCF7F5FE00210EA811
:1035200001F0A8FE2249A0601C22543115A8FCF726
:10353000EAFE002115A801F09DFE1D4960601C22D5
:1035400070311CA8FCF7DFFE00211CA801F092FEE0
:10355000174920611C228C3123A8FCF7D4FE0021DE
:1035600023A801F087FE1249E0601C22A8312AA896
:10357000FCF7C9FE00212AA801F07CFE0C49A061DD
:103580001C22C43131A8FCF7BEFE002131A801F095
:1035900071FE074960611C22E03138A8FCF7B3FED8
:1035A000002138A801F066FEE06140B010BD0000C7
:1035B000645F0008040000202DE9F04387B0142167
:1035C0006846FCF7B9FE46480024016841F0100146
:1035D0000160016801F010010591016841F04001AE
:1035E0000160016801F040010591016841F00101AD
:1035F0000160016801F001010591016841F00201DB
:103600000160016801F002010591016841F00801C3
:103610000160016801F008010591016841F48071C1
:103620000160016801F480710591016841F0800139
:103630000160016801F080010591016841F02001FD
:1036400001600068274F00F02000059000223C2117
:103650003846FEF769FADFF890804FF4FF760122D2
:1036600031464046FEF760FADFF8809000224021A4
:103670004846FEF759FA012291034846FEF754FAEC
:103680003C2000900125CDE9015469463846039459
:10369000FEF754F90096CDE901546946404603947B
:1036A000FEF74CF944F240000090CDE90154694620
:1036B00048460394FEF742F9A80200900C48CDE971
:1036C000010469464846FEF739F900220521282001
:1036D000FEF7BCFA2820FEF7ABFA07B0BDE8F0838E
:1036E00030380240001C0240001802400014024022
:1036F00000003110104810B50E4901604FF482717E
:10370000416000218160C1604FF400720161C0E935
:1037100005123022C0E90721416281620A21C1629B
:10372000FEF780FD002803D0BDE81040FDF702BA87
:1037300010BD0000005001402806002010B586B0E2
:1037400000241748009401940294039404944FF0C9
:1037500080410594C0E90014611EC0E90241046182
:103760008461FEF711FF08B1FDF7E4F94FF4005052
:10377000CDE900040294694609480394FEF7A3FFCB
:1037800008B1FDF7D7F9049404A905480594FEF79C
:10379000B3FE002801D0FDF7CDF906B010BD000042
:1037A0008006002010B586B00024174800940194CC
:1037B00002940394049413490594016040F2473144
:1037C000C0E901146321C0E903148461FEF7DCFE43
:1037D00008B1FDF7AFF94FF48050009069460A48F0
:1037E000FEF771FF08B1FDF7A5F9049404A9064896
:1037F0000594FEF781FE002801D0FDF79BF906B085
:1038000010BD000000040040C006002010B58EB0BE
:1038100000240794089409940A940B941C21684688
:103820000C94FCF789FD2B482949016040F247318F
:10383000C0E9011440F2CF71C0E903148461FEF7BE
:10384000A3FE08B1FDF776F94FF48050079007A961
:103850002048FEF738FF08B1FDF76CF91D48FFF767
:103860000EF908B1FDF766F90B940BA919480C94F1
:10387000FEF742FE08B1FDF75DF96020CDE90004D6
:1038800002940022694613480494FFF790F808B1A7
:10389000FDF750F9042269460E48FFF788F808B191
:1038A000FDF748F9082269460A48FFF780F808B191
:1038B000FDF740F90C2269460648FFF778F808B191
:1038C000FDF738F90348FFF71DF80EB010BD0000F2
:1038D000000800400007002010B58EB000240794B7
:1038E000089409940A940B941C2168460C94FCF7E4
:1038F00023FD2B482949016040F24731C0E90114FA
:1039000040F2CF71C0E903148461FEF73DFE08B1B7
:10391000FDF710F94FF48050079007A92048FEF7F3
:10392000D2FE08B1FDF706F91D48FFF7A8F808B167
:10393000FDF700F90B940BA919480C94FEF7DCFD78
:1039400008B1FDF7F7F86020CDE9000402940022E9
:10395000694613480494FFF72AF808B1FDF7EAF81E
:10396000042269460E48FFF722F808B1FDF7E2F895
:10397000082269460A48FFF71AF808B1FDF7DAF895
:103980000C2269460648FFF712F808B1FDF7D2F895
:103990000348FEF7B7FF0EB010BD0000000C00405A
:1039A000400700200C4810B50A4901604FF4E1318E
:1039B0004160002181600C22C160C0E90412816174
:1039C000C161FFF737F9002803D0BDE81040FDF7CB
:1039D000B1B810BD00780040740100200C4810B54B
:1039E0000A4901604FF4E1314160002181600C22FD
:1039F000C160C0E904128161C161FFF71BF90028B1
:103A000003D0BDE81040FDF795B810BD007C004024
:103A1000B40100200D4810B50B4901600C4941600C
:103A200000214FF480628160C0E903120C22C0E9DA
:103A30000521C161FFF7FEF8002803D0BDE8104062
:103A4000FDF778B810BD000000100140F40100201F
:103A5000A08601000C4810B50A4901604FF4E1311D
:103A60004160002181600C22C160C0E904128161C3
:103A7000C161FFF7DFF8002803D0BDE81040FDF773
:103A800059B810BD00440040340200200C4810B565
:103A90000A4901604FF4E1314160002181600C224C
:103AA000C160C0E904128161C161FFF7C3F8002859
:103AB00003D0BDE81040FDF73DB810BD0014014033
:103AC00074020020FEE70000DFED061AB2EE041AD1
:103AD000DFED050AB0EE612A9FED040A00210448DB
:103AE00000F00ABA0000000000803B4500007A4464
:103AF000B04400207047000008B54FF47A7001F020
:103B0000A6FB02F063F94D4C4D4D0090072000F0EC
:103B1000C3FC01F0A5F8FCF7DFFF607BC00702D013
:103B200048A001F00DFB607B800702D54DA001F09D
:103B300007FB607B400702D552A001F001FB607BD0
:103B4000000702D557A001F0FBFA607BC00602D542
:103B50005DA001F0F5FA607B800602D562A001F05D
:103B6000EFFA607B400602D568A001F0E9FA607BBD
:103B7000000602D56EA001F0E3FA207BC00704D056
:103B800002212846FDF7C9FF04E000220221284651
:103B9000FDF7CAFF207B800704D504212846FDF7E6
:103BA000BCFF04E0002204212846FDF7BDFF207B76
:103BB000400704D508212846FDF7AFFF04E00022A6
:103BC00008212846FDF7B0FF207B000704D510210F
:103BD0002846FDF7A2FF04E0002210212846FDF749
:103BE000A3FF207BC00604D520212846FDF795FFC2
:103BF00004E0002220212846FDF796FF207B800666
:103C000004D540212846FDF788FF04E0002240212A
:103C10002846FDF789FF207B400604D580212846F1
:103C2000FDF77BFF04E0002280212846FDF77CFFA2
:103C30003221684601F012FB68E70000B04800201E
:103C40000018024052656D6F74655F446174615F76
:103C50005461736B206973206F66666C696E650DC5
:103C60000A000000566973696F6E5F446174615F9A
:103C70005461736B206973206F66666C696E650DA5
:103C80000A000000526566657265655F4461746193
:103C90005F5461736B206973206F66666C696E6533
:103CA0000D0A00004672696374696F6E5F44726941
:103CB00076655F5461736B206973206F66666C690B
:103CC0006E650D0A00000000547269676765725FD7
:103CD00044726976655F5461736B206973206F6607
:103CE000666C696E650D0A0047696D62616C5F43C1
:103CF0006F6E74726F6C5F5461736B206973206FA9
:103D000066666C696E650D0A0000000043686173A9
:103D10007369735F436F6E74726F6C5F5461736B22
:103D2000206973206F66666C696E650D0A0000007D
:103D30004F66664C696E655F436865636B5F54618F
:103D4000736B206973206F66666C696E650D0A007F
:103D50000449002048708870C87048600248886034
:103D6000FEF7A0BCB0480020C006002010B504003B
:103D70009FED602A23D084ED090A30EEC01AC4ED0D
:103D8000060A30EEC00A84ED0C1AD4ED151AB0EE16
:103D9000C00AF5EEC01AF1EE10FA04D0B4EEE10A52
:103DA000F1EE10FA0BDCD4ED160AF5EEC00AF1EED6
:103DB00010FA07D0B4EEE00AF1EE10FA02D2B0EE3B
:103DC000420A10BD217804F1380011B1012935D023
:103DD00070E094ED010A20EE010A84ED0D0A94EDE5
:103DE0000E0AD4ED020A00EE810A84ED0E0A94ED6B
:103DF0000B0AD4ED030A31EE400A20EE200A84EDCE
:103E00000F0A84ED100A94ED120A01F0D1F994ED35
:103E10000D0AD4ED0E0A04F15C0030EE200AD4ED58
:103E20000F0A30EE200A84ED170A94ED140A01F00F
:103E3000BFF994ED170A84ED180A3BE094ED0B0AE4
:103E4000D4ED011A71EE400A60EEA10AC4ED0D0A2C
:103E5000D4ED020A60EE810AC4ED0E0AF0EE000A0B
:103E600000EE601A94ED0A0AD4ED030A31EE000A5E
:103E700020EE200A84ED0F0A94ED120A01F098F961
:103E800094ED0D0AD4ED0E0A04F1640030EE200A20
:103E9000D4ED0F0A30EE200AD4ED1A0A30EE200AD3
:103EA00084ED190A94ED140A01F082F994ED190ACF
:103EB00084ED1A0A94ED0B0A84ED0A0A94ED0C0ABB
:103EC00084ED0B0A94ED080A84ED070A94ED090AC3
:103ED00084ED080A94ED050A84ED040A94ED060ABF
:103EE00084ED050A207810B194ED190A10BD94ED07
:103EF000170A10BD00000000002807D0C0ED120A0C
:103F000080ED140A00F8041B80EC031A70470000CF
:103F1000017A437A01EBC10101EB4102104901F83A
:103F2000223090ED030A01EB820181ED010A90ED50
:103F3000040A81ED020A90ED050A81ED030A90ED75
:103F4000060A81ED110A90ED070A81ED120A90ED43
:103F5000080A81ED130A90ED090A81ED140A7047F1
:103F6000B04400202DE9F041BEB0A5225C4C8DF894
:103F7000C8201E238DF8C930A1788DF8CA104D1CB9
:103F8000A5708DF8D000044600EBC000DFF854C1E6
:103F9000102700EB40008DF8CC701CF820500CEB83
:103FA00080008DF8D15090ED010AE8468DED350A7C
:103FB00090ED020A00268DED360A90ED030A8DED94
:103FC000370A90ED110A8DED380A90ED120A8DED49
:103FD000390A90ED130A8DED3A0A90ED140A404625
:103FE0008DED3B0A8DF800208DF801308DF8021020
:103FF0000321FF22FCF71AFE8DF804708DF80540AE
:104000008DF803008DF80650072432A84546811923
:10401000761C097B2955641CF6B2E4B2042EF6D353
:1040200000214218491C127C2A55641CC9B2E4B212
:104030000429F6D300214218491C127D2A55641C1C
:10404000C9B2E4B20429F6D300214218491C127EF9
:104050002A55641CC9B2E4B20429F6D300214218DF
:10406000491C127F2A55641CC9B2E4B20429F6D354
:1040700000214218491C92F820202A55641CC9B21C
:10408000E4B20429F5D300214218491C92F82420F7
:104090002A55641CC9B2E4B20429F5D34FF6FF7265
:1040A00021466846FCF7ACFD2855641CE1B2000AC5
:1040B0006854491CCEB200240B4F0BE038680168ED
:1040C0004906FCD529190A2301220748FEF723FFD8
:1040D000641CE4B2B442F1D33EB0BDE8F08100000C
:1040E00010010020B044002034020020364A30B4D1
:1040F000A2F12C031078187050785870907898704E
:10410000D078D87010791446187164790021E8B31A
:10411000012856D11C729079587207205D18145CE2
:10412000401C491C2C730429F8DB0021145C5D1829
:10413000401C491C2C740429F8DB0021145C5D1818
:10414000401C491C2C750429F8DB0021145C5D1807
:10415000401C491C2C760429F8DB0021145C5D18F6
:10416000401C491C2C770429F8DB0021145C5D18E5
:10417000401C491C85F820400429F7DB0021145C11
:104180005D18401C85F82440491C00E00FE004291C
:10419000F5DB0021145C5D18401C491C85F82840A3
:1041A0000229F7DB084830BC2C38FFF7B1BE1C727F
:1041B00006205D18145C401C491C85F82840022923
:1041C000F7DB30BC70470000D84B00202DE9F843E6
:1041D0002F49086802682F4C92064FF0000502D460
:1041E0000268120734D54068884621782A4BC0B24D
:1041F000012611B1012906D020E0A5281ED1267084
:10420000187066701AE06278012A2CD0022A30D029
:104210000827032A31D0A1888A420FD29854521C11
:10422000D0B26070884209D11B4800F0D5FE10B1B1
:10423000FFF75CFFE670A78065702570D8F8002056
:104240006FF020011160D8F800000168406800900C
:10425000E078002805D010482C38007AFFF782FE5D
:10426000E570BDE8F883587002216170C01DA08020
:10427000E4E7987003206070E0E7D8700420607075
:104280000146054800F0C6FE0028D4D0D6E700005D
:104290003402002010010020D84B002010B50B4C38
:1042A000012204212046FDF73FFC0122082120467F
:1042B000FDF73AFC012210212046FDF735FC20468F
:1042C0000122BDE810402021FDF72EBC001C024059
:1042D00017484FF4A561B0F9002002F525728A4213
:1042E00017D8B0F9022002F525728A4211D8B0F928
:1042F000042002F525728A420BD8B0F9062002F597
:1043000025728A4205D8017A19B1417A09B1002093
:1043100070470021018041808180C180017241721B
:1043200041818181C18101744174418201207047C2
:10433000744B002038B51C490A68D36823F4005335
:10434000D3604A6B1268136823F0010313604A6B51
:104350001268506008680268426800924A6B134C09
:1043600013684FF40012A34202D9104B4C3B04E0F7
:104370000F4CA34203D90D4B503B1A6008E00C4D83
:104380000B4C603DB83CAB4201D9E26000E0A2605A
:10439000C26842F40052C260486B0068016841F094
:1043A0000101016038BD0000F401002058640240A2
:1043B000B8600240C8220249024800F0A7BC0000D1
:1043C000AC4A00207402002008B501F0FFFC4FF059
:1043D000FF3400902146012001F0D0F9012802D1DC
:1043E000022000F059F80A21684600F037FFF1E793
:1043F00038B51A4C20680168C9062DD50168406897
:104400000090606B0068016821F001010160606B41
:1044100000684068124DC0F1C8001249288001F1BF
:104420009E0000F0B7F81048291D006801F034FB29
:10443000686838B10D494FF080500860BFF34F8F66
:10444000BFF36F8F616BC82009684860606B0068BC
:10445000016841F001010160002038BD74020020B4
:10446000040100200E4A00200C00002004ED00E0B2
:1044700010B50446FCF74CFC024800EB840080EDCC
:10448000000A10BD7448002002484168491C416080
:1044900070470000B048002010B50446FCF738FC17
:1044A000024800EB840080ED000A10BD9048002017
:1044B00024220249024800F029BC0000884B002059
:1044C000F401002008B501F081FC4FF0FF340090AA
:1044D0002146012001F052F9012802D10020FFF706
:1044E000DBFF0121684600F0B9FEF1E7F0B50028D6
:1044F0004ED000294CD00278437842EA0322C2F31E
:104500000A020A8043788478DB0843EA4413C3F341
:104510000A034B808478C578A40944EA85040579A8
:1045200044EA8524C4F30A048C80057946796D0831
:1045300045EAC615C5F30A05CD804679B6090E725F
:104540004679C6F301164E728679C77946EA072680
:104550004E81067A477A46EA07268E81867AC77A9E
:1045600046EA0726CE81067B0E74467B4E74867B18
:10457000C07BA2F5806246EA002048820A80A3F54B
:1045800080634B80A4F580648C80A5F58065CD8028
:10459000F0BD00002DE9F0470C46060071D0002563
:1045A000644FC1E0705DA5286CD170198046016828
:1045B000216001792171B0F80510E180B4F8011093
:1045C000093189B2894600F007FD00285AD04046DB
:1045D000052100F01FFD002854D0E08840F20122A0
:1045E000A0F20121904257D016DC052836D008DC15
:1045F00001281AD002281FD0032821D004281AD15C
:1046000024E0A0F58070013831D0012834D003288F
:1046100039D004280FD13AE00A290CD2DFE801F0A2
:104620007F444A50555C616A6F74B8F80710218165
:1046300098F80900A07272E098F80700E0726EE046
:1046400008F10701202204F10C002AE0B8F8071055
:10465000A18598F8090084F82E0060E0B8F80710EA
:10466000A4F82F1098F8090084F8310057E0D8F822
:104670000700C4F8320052E0D8F80700C4F836004A
:104680004DE055E04EE0B8F80700608747E098F845
:10469000070084F83C0042E008F10701122204F10F
:1046A0003D00FBF730FE3AE008F10701102204F16B
:1046B0004F00F6E708F10701102204F15F00F0E770
:1046C00098F8070084F86F0029E0B8F80710A4F8FC
:1046D000701098F8090001E098F8070084F872005B
:1046E0001DE0404650F8071FC4F873108088A4F8F6
:1046F000770014E0B8F80700A4F879000FE0D8F8C4
:104700000700C4F87B000AE0404650F8071FC4F8D1
:104710007F104168C4F883108068C4F8870005EBF7
:104720000900C5B26D1CEDB238888542FFF43AAF7E
:10473000BDE8F0870401002038B504461248134B49
:104740000068B0FBF3F04FF47A7358430090606850
:10475000B0F5827F0DD10B460092002280212046C9
:1047600000F016F870B1606D40F020006065032025
:1047700038BD009830B1401E009020688068C0436A
:104780000006F6D5002038BD3400002000366E014A
:104790002DE9F0411D4617460E460446DDF8188007
:1047A00008E0681C06D0FDF7C5F9A0EB0800A84298
:1047B0000BD255B12068806836EA000030D0002066
:1047C000B842EED10020BDE8F0812068416821F0B8
:1047D000E00141606068B0F5827F0BD1A068B0F560
:1047E000004F02D0B0F5806F04D12068016821F03D
:1047F00040010160A06AB0F5005F09D1206801683E
:1048000021F4005101602068016841F40051016009
:10481000012084F85100002084F850000320D2E7E2
:104820000120CDE700F01CB9104810B50068016800
:1048300041F00101016000210C48FEF73DF904211F
:104840000A48FEF739F9C8210846FFF7EBFF4FF495
:10485000FA642046FDF732F864210846FFF7E2FFCC
:104860002046BDE81040FDF729B8000040070020B1
:1048700008B501F0ABFA074D4FF480444FF47A7657
:10488000009021462846FDF748F93146684600F079
:10489000E5FCF6E70014024010B5502080F31188C3
:1048A000BFF34F8FBFF36F8F01F096FA18B1044931
:1048B0004FF080500860002080F3118810BD000088
:1048C00004ED00E030B593B030216846FBF734FDCD
:1048D00014210CA8FBF730FD19480025016841F0B0
:1048E00080510160006800F0805011901548016807
:1048F00041F4404101600068022400F440401190FE
:1049000001200090000401908001CDE906400620BE
:104910000890A820CDE9090404200B906846FDF713
:10492000D3FA0CA90F2081E831004FF4A0500F906A
:10493000E002109005210CA8FDF7BAF913B030BDC4
:1049400040380240007000400548016841F47001A1
:10495000016003494FF00060803908607047000033
:1049600088ED00E00148FDF71ABF00008007002035
:104970000148FDF714BF0000C0060020F0B5026832
:10498000254C264D264E274F274B4FF0804CA042FA
:1049900009D0604507D0A84205D0B04203D0B84244
:1049A00001D0984204D122F0700E4A6842EA0E0209
:1049B000A0421BD0604519D0A84217D0B04215D0F4
:1049C000B84213D0984211D0184DA8420ED0184DBD
:1049D000A8420BD0174DA84208D0174DA84205D0C9
:1049E000164DA84202D0164DA84203D122F44075BC
:1049F000CA682A434D6922F080022A4302608A680D
:104A0000C2620A688262A04201D0984201D109695B
:104A1000016301214161F0BD00000140000400403C
:104A200000080040000C004000040140004001402C
:104A3000004401400048014000180040001C0040B4
:104A40000020004010B501F01F030121046A9940C5
:104A50008C430462016A9A401143016210BD000058
:104A600002490A685063096888637047400700205C
:104A700010B5846842EA032224F47F440A432243A7
:104A8000826010BD826822F070020A4342F0070182
:104A900081607047F0B5026A22F001020262036A87
:104AA00042688469124E24F073050C682C4323F08D
:104AB00002058B682B430D4DA84201D0B04205D1B1
:104AC00023F00807CB683B4323F00403A84201D03E
:104AD000B04205D14D6922F4407215438A692A43D8
:104AE00042608461496841630362F0BD0000014097
:104AF00000040140F0B5026A22F010020262026A6C
:104B0000436884690D6824F4E64444EA05248D680A
:104B100022F0200242EA05120F4D104EA84201D0A9
:104B2000B04206D1CF6822F0800242EA071222F09A
:104B30004002A84201D0B04207D14D6923F440633E
:104B400043EA85038D6943EA8503436084614968CC
:104B500081630262F0BD00000000014000040140DA
:104B6000F0B5026A22F480720262026A4368C46984
:104B700022F4007224F073050C68124E2C438D68E9
:104B800042EA05220E4DA84201D0B04206D1CF68BC
:104B900022F4006242EA072222F48062A84201D095
:104BA000B04207D14D6923F4405343EA05138D69A0
:104BB00043EA05134360C4614968C1630262F0BD02
:104BC000000001400004014030B5026A22F4805226
:104BD0000262046A4268C3690D6823F4E64343EA4B
:104BE00005238D6824F4005444EA0534084DA84296
:104BF00002D0084DA84204D14D6922F4804242EA15
:104C000085124260C36149680164046230BD0000DE
:104C1000000001400004014010B5036A046A24F05A
:104C200001040462846924F0F00444EA021423F0CD
:104C30000A020A438461026210BD10B5036A23F0C0
:104C4000100303628369046A23F4704343EA023267
:104C500024F0A00343EA01118261016210BD00004B
:104C600070B50024FCF754F80D4B0E4D03F12001F4
:104C70005FF0010003EB8402D2ED000A70EE600ADF
:104C800010EE902AAA424A7B00FA04F601DD324374
:104C900000E0B243641C24B24A73082CEADB70BD06
:104CA000904800200000C84208B501F08FF800903D
:104CB0000420FFF7F1FB0A21684600F0CFFAF7E77E
:104CC00010B50348FDF72CFFBDE8104000F0D4B943
:104CD000740100200148FDF723BF0000B40100204B
:104CE00010B5806B0021C185C184FDF718FF10BD90
:104CF0000168CA6822F49072CA6001684A6922F0A9
:104D000001024A61202180F83A10704710B504462C
:104D1000FBF77EFD2068C16841F01001C1600020F2
:104D200010BD10B590F83A10222901D0022010BD14
:104D30008168B1F5805F11D00169002901681FD039
:104D4000496801F07F03816A4A1C82620B70C18D41
:104D5000491E0904090CC18518D02BE00269816A3B
:104D6000002A0268526805D0D2B20A80816A491CC2
:104D70008162ECE7C2F308020A80816A891CF7E7C6
:104D80004A68816A4B1C83620A70E0E70168CA685E
:104D900022F02002CA600168CA6822F48072CA60E8
:104DA00001684A6922F001024A61202180F83A1024
:104DB000FEF7B0F8002010BD2DE9F0410446006870
:104DC0000169E26821F44051114301612169A06841
:104DD000E26908436169114308432168CA6849F2DE
:104DE0000C639A430243CA6020684169A26921F4B6
:104DF000407111434161E069192764253226B0F5FD
:104E0000004F354A354920684FF0000806D08842E7
:104E100001D0904236D1FDF715F835E0884201D037
:104E2000904202D1FDF70EF801E0FCF7FBFF61684C
:104E30004A18A0FB070148EB0803FBF733FA0146C9
:104E4000B0FBF5F00201B1FBF5F06FF01803584329
:104E500001EB800006EBC000B0FBF5F000F0F800BD
:104E600002EB4002B1FBF5F0584301EB800006EB8A
:104E7000C000B0FBF5F000F0070021681044886026
:104E8000BDE8F081FCF7CEFF61688B0F8A00A0FBC4
:104E90000701FBF707FA0146B0FBF5F06FF01802C7
:104EA000504301EB800006EB0010B0FBF5F000F082
:104EB000F002B1FBF5F002EB0012B1FBF5F06FF080
:104EC0001803584301EB800006EB0010B0FBF5F02F
:104ED00000F00F00D1E70000001401400010014075
:104EE00090F83910212901D0022070478168B1F56E
:104EF000805F016A0BD04A1C026202680978516027
:104F0000C18C491E0904090CC1840ED017E0098820
:104F10000268C1F30801516001690029016A02D0E9
:104F2000491C0162ECE7891CFBE70168CA6822F0B2
:104F30008002CA600068C16841F04001C160002081
:104F400070472DE9F041984617460E460446069DE7
:104F50001DE0681C1BD02DB1FCF7ECFDA0EB080098
:104F6000A84214D92068C16821F4D071C1602068BA
:104F7000416921F001014161202084F8390084F861
:104F80003A00002084F838000320BDE8F081206852
:104F9000006836EA000004D00020B842D9D00020D2
:104FA000F3E70120F9E7000010B50348FDF7B8FD6D
:104FB000BDE81040FBF748BDF4010020FFF706B93B
:104FC00010B50348FDF7ACFDBDE81040FFF710BA7F
:104FD00074020020FEE7000030B50C46050014D036
:104FE000022C12D90A48A11E02882846FBF708FEA7
:104FF0002919C2B211F8023C9A4206D111F8011CDB
:10500000B1EB102F01D1012030BD002030BD0000D8
:105010009800002030B50C4605000CD0022C0AD9AF
:10502000FF22611EFBF702FE291911F8011C8142C3
:1050300001D1012030BD002030BD00001222024904
:105040000248FFF763BE0000FC4900207401002005
:1050500008B500F0BBFE4FF0FF3400902146012060
:1050600000F08CFB012801D1FFF716FA0A216846EF
:1050700000F0F4F8F2E7000038B5274C206801682A
:10508000C90647D5016840680090606B00680168F8
:1050900021F001010160606B006840681F4DC0F1A4
:1050A000120028801E48A0F10C0102780A70027AD2
:1050B0008A720A78FF2A13D18A7AFE2A10D182785E
:1050C000437842EA03224A800279C37842EA032203
:1050D0008A8042798A71C279807942EA0020088107
:1050E00010480E49091D006800F0D6FC686838B108
:1050F0000D494FF080500860BFF34F8FBFF36F8FA3
:10510000616B122009684860606B0068016841F0BB
:1051100001010160002038BD74010020FC00002066
:10512000FC4900200800002004ED00E0034800686E
:10513000C16841F02001C1607047000034020020C6
:10514000014A024900F023B8D5510008200100208F
:105150000907090E002804DB00F1E02080F80014A4
:10516000704700F00F0000F1E02080F8141D704738
:1051700002E008C8121F08C1002AFAD17047704720
:10518000002001E001C1121F002AFBD170472DE968
:10519000F04116460F460446002503E03946B04765
:1051A000641C6D1C20780028F8D12846BDE8F081E9
:1051B000D0ED000AF4EEC00AF1EE10FA06DCB1EE12
:1051C000400AF4EEC00AF1EE10FA01D280ED000AB6
:1051D0007047000013B50A23012269460248FDF713
:1051E0009AFE00981CBD000034020020FCF7B0FCC1
:1051F000FFF768FB00F046FBFEF7DEF9FEF742F929
:10520000FEF7FCF8FEF71CF9FEF774FAFEF796FAC3
:10521000FEF7C8FAFEF7FAFAFEF75EFBFEF7C2FBEE
:10522000FEF7DCFBFEF7F6FBFEF714FCFEF72EFCA8
:10523000FBF7CEFAFEF754F900F044FB00F015F846
:10524000FEE701460020842900D0C81C704710B535
:1052500000B9012000F0B4FB002010BD10B501B969
:10526000012100F0D3FB002010BD10B500F070FC50
:10527000002010BD7FB50D4604464169B0F9080015
:1052800081B1A16971B1FFF7DCFFD4E905128DE8A6
:105290000700D4E900102B46226900F06CFD039052
:1052A00004B070BDFFF7CDFF03A9CDE90001208A4E
:1052B0002B4682B2D4E9001000F030FD012801D065
:1052C0000020EDE70398EBE72DE9F041184C0F467D
:1052D000054666692068001D00F084FA38B9206828
:1052E00090F82C1001208840A1698143A161681CBD
:1052F00007D137B12168BDE8F0410E48091D00F023
:10530000B5BA20683544B5424560216805D2A06829
:10531000BDE8F041091D00F091BA6068091D00F078
:105320008DFA206B854200D22563BDE8F081000034
:10533000380000209C0800202DE9F041054600F0CF
:10534000A1FA2E4C2069401C206120682C4F10B11E
:10535000E06940B32DE025602069012829D10026AD
:1053600006EB860007EB800000F05AFA761C072E49
:10537000F6D323488C3000F053FA2148A03000F0D7
:105380004FFA1F48B43000F04BFA1D48C83000F007
:1053900047FA1B48DC3000F043FA19488C30606053
:1053A0001430A06005E02068E96AC06A884200D82D
:1053B0002560E06A401CE062E96A0120A269884039
:1053C0001043A06101EB810007EB8000291D00F074
:1053D0004DFA00F077FAE06900280CD02068E96AFD
:1053E000C06A884207D207494FF080500860BFF377
:1053F0004F8FBFF36F8FBDE8F081000038000020B1
:10540000C007002004ED00E010B5044690F85100FC
:1054100058B101280CD002280FD0502080F31188F9
:10542000BFF34F8FBFF36F8FFEE7206B00F05EFA84
:105430002046BDE8104000F059BA10BD10484FF4A6
:105440007051420706D0C01D0D4920F00700411AD7
:10545000C1F570510B4A00230144C2E90003083929
:10546000103A21F0070111604B600B600B1AC0E984
:10547000001393604FF000405360D060704700000D
:10548000B008002084000020144E154CA6F1C80777
:105490004FF08058DFF84C9012E000BF00F0F2F9B6
:1054A000F068C568281D00F09DF92069401E206144
:1054B000E068401EE06000F005FA2846FFF7A4FF10
:1054C000E0680028EAD138680128F9D9C9F80080D5
:1054D000BFF34F8FBFF36F8FF2E700008808002003
:1054E0003800002004ED00E02DE9F0479A46DDE9A0
:1054F000098481466FF00303206B03EB82021044A2
:10550000089D20F00706700707D0502080F311880F
:10551000BFF34F8FBFF36F8FFEE723180A5C83F84A
:1055200034200A5C12B1401C1028F6D3002784F8FE
:105530004370072D00D30625E562C4E91157201DED
:1055400000F079F904F1180000F075F92461C5F153
:1055500007006462A061E76484F8507052464946CF
:10556000304600F0BFF82060B8F1000F01D0C8F855
:105570000040BDE8F087000030B5114900E0114659
:105580000A688242FBD34B685C18844203D14068AE
:1055900018444860084643681C18944209D1084CD6
:1055A000103C2468A24209D052681A4442600A683A
:1055B00012680260814200D0086030BD0460F9E7E3
:1055C0008400002006484168096829B14168C9681B
:1055D000C9684968016370474FF0FF31FAE700007E
:1055E0003800002008484068401C4FF0500080F30D
:1055F000118804D0BFF34F8FBFF36F8FFEE7BFF367
:105600004F8FBFF36F8FFEE78C0000202DE9F04134
:105610000546002700F0D2FA314E306808B9FFF78E
:105620000DFFF06805424BD1C5B3083568070ED0B1
:1056300005F00700C0F108000544680707D05020B6
:1056400080F31188BFF34F8FBFF36F8FFEE72DB349
:105650007068854234D82248103001460C6801E059
:1056600020460C466168A94202D221680029F7D180
:1056700031688C4224D0076821680160606808376F
:10568000411B10290FD96019420708D0502080F320
:105690001188BFF34F8FBFF36F8FFEE710E04160BB
:1056A0006560FFF769FF61687068401A7060B268F2
:1056B000904200D2B060F06801430020C4E90001CC
:1056C00000F0EEFB780707D0502080F31188BFF37D
:1056D0004F8FBFF36F8FFEE73846BDE8F0810000C3
:1056E0007400002010B5031F4FF080741C601B1F56
:1056F00021F001011960191F044B0B6014390A6075
:10570000091F6FF0020244380A6010BDE555000819
:1057100010EE101A016000EE101A4268016900EEE6
:10572000902A01EE101A40EE010A10EE901A416024
:10573000C26800EE901A00EE102AF4EEC00AF1EEF4
:1057400010FA01DD4260704700EE101A816800EE29
:10575000901AB4EEE00AF1EE10FAF4D2416070470C
:1057600010EE101A016110EE901AC16011EE101ABD
:1057700081600021016041607047000070B50C46F7
:10578000064600F07FF8154D2868C06C80B929687E
:10579000012081F850005CB101212046FFF794FD03
:1057A0000F494FF080500860BFF34F8FBFF36F8FEA
:1057B00000F088F800F066F82868C46C002034B166
:1057C00016B12968C86402E02A68611ED16429689C
:1057D00081F8500000F076F8204670BD38000020B7
:1057E00004ED00E0D0E9013201699A60D0E90123BB
:1057F0005A604A68824201D182684A60002202618E
:105800000868401E0860086870470000034B03608A
:1058100003F154000860802010607047D40300201A
:1058200000F108014FF0FF32C0E90112C1600161CF
:1058300000210160704700210161704730B50B689D
:105840005A1C02D000F1080202E0026904E022467C
:10585000546825689D42FAD953684B6099608A6004
:10586000516008610168491C016030BD42684A60AE
:1058700093688B6093685960916008610168491C66
:1058800001607047502080F31188BFF34F8FBFF342
:105890006F8F0A494868401C486001280CD10848AD
:1058A000006810F0FF0F07D0502080F31188BFF37D
:1058B0004F8FBFF36F8FFEE7704700008C00002012
:1058C00004ED00E00849486828B1401E486001D155
:1058D00080F311887047502080F31188BFF34F8FF9
:1058E000BFF36F8FFEE700008C00002070B500282A
:1058F00027D0144DA0F108046168E868014207D17F
:10590000502080F31188BFF34F8FBFF36F8FFEE7F6
:1059100022683AB1502080F31188BFF34F8FBFF354
:105920006F8FFEE78143616000F048F96068696845
:10593000084468602046FFF71FFEBDE8704000F095
:10594000AFBA70BD740000204FF0E020002101616B
:10595000816105494FF47A720968B1FBF2F1491E81
:1059600041610721016170473400002010B5FAF74A
:1059700083FC114910280ED300F1E02090F8F003C9
:105980000A78904207D2502080F31188BFF34F8FDE
:10599000BFF36F8FFEE709480068896800F4E06094
:1059A000884207D9502080F31188BFF34F8FBFF38F
:1059B0006F8FFEE710BD00008C0000200CED00E0B2
:1059C00010B5020014D00F48806B38B1502080F31E
:1059D0001188BFF34F8FBFF36F8FFEE700F0EEF833
:1059E00000211046FFF770FC00F05AFA002807D19A
:1059F00005494FF080500860BFF34F8FBFF36F8FA2
:105A000010BD00003800002004ED00E070B50D4628
:105A100004000BD095B11E4A906BB8B1502080F3B2
:105A20001188BFF34F8FBFF36F8FFEE7502080F3D5
:105A30001188BFF34F8FBFF36F8FFEE7502080F3C5
:105A40001188BFF34F8FBFF36F8FFEE700F0B6F8FA
:105A5000526923685919934204D98B420AD9914259
:105A600002D807E08B42FAD9881A21600021FFF79B
:105A70002BFC00E0216000F013FA002807D1054953
:105A80004FF080500860BFF34F8FBFF36F8F70BD32
:105A90003800002004ED00E02DE9F04188460400C4
:105AA00015D0FFF763FF5020EFF3118680F31188C4
:105AB000BFF34F8FBFF36F8F94F85000022184F82B
:105AC0005010E16C491CE164012808D037E05020F7
:105AD00080F31188BFF34F8FBFF36F8FFEE7A06A8B
